{
  "_format": "hh-sol-artifact-1",
  "contractName": "Ruleta",
  "sourceName": "contracts/Ruleta.sol",
  "abi": [
    {
      "inputs": [],
      "name": "funds",
      "outputs": [
        {
          "internalType": "uint256",
          "name": "",
          "type": "uint256"
        }
      ],
      "stateMutability": "view",
      "type": "function"
    },
    {
      "inputs": [],
      "name": "getBalance",
      "outputs": [
        {
          "internalType": "uint256",
          "name": "",
          "type": "uint256"
        }
      ],
      "stateMutability": "view",
      "type": "function"
    },
    {
      "inputs": [
        {
          "internalType": "uint256",
          "name": "amount",
          "type": "uint256"
        }
      ],
      "name": "payWinner",
      "outputs": [],
      "stateMutability": "nonpayable",
      "type": "function"
    },
    {
      "stateMutability": "payable",
      "type": "receive"
    }
  ],
  "bytecode": "0x608060405234801561001057600080fd5b50610294806100206000396000f3fe6080604052600436106100385760003560e01c806312065fe014610044578063a5c0449f1461006f578063c89f2ce4146100985761003f565b3661003f57005b600080fd5b34801561005057600080fd5b506100596100c3565b6040516100669190610211565b60405180910390f35b34801561007b57600080fd5b5061009660048036038101906100919190610179565b6100cb565b005b3480156100a457600080fd5b506100ad61015e565b6040516100ba9190610211565b60405180910390f35b600047905090565b600047905081811015610113576040517f08c379a000000000000000000000000000000000000000000000000000000000815260040161010a906101f1565b60405180910390fd5b3373ffffffffffffffffffffffffffffffffffffffff166108fc839081150290604051600060405180830381858888f19350505050158015610159573d6000803e3d6000fd5b505050565b60005481565b60008135905061017381610247565b92915050565b60006020828403121561018b57600080fd5b600061019984828501610164565b91505092915050565b60006101af60188361022c565b91507f436f6e74726163742062616c616e636520746f6f206c6f7700000000000000006000830152602082019050919050565b6101eb8161023d565b82525050565b6000602082019050818103600083015261020a816101a2565b9050919050565b600060208201905061022660008301846101e2565b92915050565b600082825260208201905092915050565b6000819050919050565b6102508161023d565b811461025b57600080fd5b5056fea264697066735822122028757fd1590e370444bcd872f63bb0a5645f386942d4c5c40c060f200a45968864736f6c63430008000033",
  "linkReferences": {},
  "deployedLinkReferences": {}
}